:100000000C9434000C943E000C943E000C943E0082
:100010000C943E000C943E000C943E000C943E0068
:100020000C943E000C943E000C943E000C943E0058
:100030000C943E000C943E000C943E000C943E0048
:100040000C943E000C943E000C943E000C943E0038
:100050000C943E000C943E000C943E000C943E0028
:100060000C943E000C943E0011241FBECFEFD8E04C
:10007000DEBFCDBF0E9472000C949A000C94000069
:100080001092C50087E68093C400E0ECF0E0808128
:100090008D7F808388E18093C10086E08093C200D9
:1000A00008959091C00095FFFCCF8093C6000895FD
:1000B0008091C00087FFFCCF8091C60008950F9308
:1000C0001F93CF938C01C0E0F801EC0FF11D8081EC
:1000D000882321F00E945100CF5FF6CFCF911F916E
:1000E0000F91089584B1876084B985B1876085B91F
:1000F00021E092E084E025B93FEF45EA5EE031502F
:1001000040405040E1F700C0000095B93FEF45EA9C
:100110005EE0315040405040E1F700C0000085B93A
:100120003FEF45EA5EE0315040405040E1F700C00B
:080130000000E1CFF894FFCFBD
:00000001FF
